:020000040800F2
:100000000000012061020008650200086702000884
:100010007D0200087F020008950200080000000031
:10002000000000000000000000000000AB0200081B
:10003000AD02000800000000AF020008610A0008DD
:10004000C5020008C5020008C5020008C502000874
:10005000C5020008C5020008F50F000815100008C9
:10006000C5020008C5020008C5020008C502000854
:10007000C5020008C5020008C5020008C502000844
:10008000C5020008C5020008C50200080000000003
:10009000000000000000000000000000C502000891
:1000A000C5020008C5020008C5020008C502000814
:1000B000C5020008C5020008C5020008C502000804
:1000C000C5020008C5020008C5020008C5020008F4
:1000D000C5020008C5020008C502000800000000B3
:1000E000C5020008C5020008C502000800000000A3
:1000F000000000000000000000000000C502000831
:1001000000000000C5020008C5020008C502000882
:1001100000000000000000000000000000000000DF
:10012000C5020008C5020008C5020008C502000893
:10013000C5020008000000000000000000000000F0
:10014000000000000000000000000000C5020008E0
:10015000C5020008C5020008C5020008C502000863
:10016000C5020008C50200080000000000000000F1
:10017000000000000000000000000000000000007F
:1001800000000000C50200080000000000000000A0
:10019000C502000807B500F0A7FB274B274883429C
:1001A00026D3274B274900208B422DD300F0F6FFA2
:1001B000254E264C01A9684600F08EFBA41BA41016
:1001C0000025AC4229DC224E224CA41BA4100025A1
:1001D000AC4227DCDDE9000100F082FF1E4D1F4C20
:1001E000641B0646A410002C21DC304600F070FB96
:1001F000D3E900120C3353F8044C891A9442CED937
:10020000555815600432F9E753F8082B53F8044C9D
:100210009442C9D910600432FAE756F8253098475D
:100220000135CEE756F8253098470135D0E7013C37
:1002300055F824309847D6E7C8020008E0020008C5
:10024000E0020008F0020008F0020008F0020008D6
:10025000F0020008F0020008F0020008F0020008B6
:1002600014480047FEE71EF0040F0CBFEFF30880B0
:10027000EFF309807146104A1047FEE7FEE71EF0D3
:10028000040F0CBFEFF30880EFF3098071460B4AAF
:100290001047FEE71EF0040F0CBFEFF30880EFF3EA
:1002A00009807146064A1047FEE7FEE7FEE7FEE7D3
:1002B00070470000950100087B02000893020008C7
:0602C000A9020008FEE7A0
:1002C800BC390008000000201C000020BC390008D0
:1002D80000000010000000101C0000206C0000202E
:0802E8000000001000000010EE
:1002F00010B5084B044618684FF47A73B0FBF3F05E
:1003000000F070F8002221464FF0FF3000F036F880
:10031000002010BD0800002008B50B4B1A6842F4FD
:1003200000721A601A6842F480621A601A6842F415
:1003300080721A60032000F00FF80F20FFF7D8FF3B
:1003400000F035FF002008BD003C0240014B18685A
:10035000704700BF68000020074AD36823F4E063B9
:100360001B041B0C43F0BF63000243F4003300F492
:10037000E0600343D360704700ED00E0174B70B5B9
:10038000DC68C4F30224C4F10705042D04F104035E
:1003900028BF04254FF0FF36062B06FA05F38CBF65
:1003A000033C002421EA0303A34006FA04F422EAF2
:1003B0000404002843EA0403A8BF00F160404FEAA8
:1003C0000313BCBF00F00F00054ADBB2AABF00F563
:1003D0006140135480F8003370BD00BF00ED00E0B1
:1003E00014ED00E00138B0F1807F0AD2064B074AD5
:1003F0005860F02182F823100020072298601A60CC
:1004000070470120704700BF10E000E000ED00E001
:10041000044B1A6804280CBF42F0040222F00402C4
:100420001A60704710E000E00368F7B50446D8078B
:1004300038D4236899076DD423681E0700F1B9806A
:1004400023685D0728D500230193A64BA64D1A6C9F
:1004500042F080521A641B6C03F080530193019B9D
:100460002B6843F480732B60FFF770FF06462B6800
:10047000DA0540F1C0809D4B227A1A70A368002BE8
:1004800000F0C780FFF762FF964D064641F28837BD
:100490002B6F9B0740F1B680A269002A40F0C9800B
:1004A000002015E08F4B9A6802F00C02042A07D056
:1004B0009A6802F00C02082A0CD15B685A0209D52E
:1004C000884B1B689B03B4D56368002BB1D1012016
:1004D00003B0F0BD864B22791A7063686BB1FFF7E9
:1004E00035FF804D06462B689F03A2D4FFF72EFFF1
:1004F000801B6428F7D90320EAE7FFF727FF794D2F
:1005000006462B68980394D5FFF720FF801B6428CC
:10051000F7D9F0E7734B9A6812F00C0F07D09A687E
:1005200002F00C02082A16D15B68590213D46D4BF5
:100530001A68920702D5E268012AC8D11868F82221
:1005400092FAA2F2B2FA82F122698A4020F0F8010E
:100550000A431A6070E7E268664BDAB101221A605A
:10056000FFF7F4FE5F4D06462B689B070CD5296804
:10057000F82393FAA3F3B3FA83F22369934021F0AB
:10058000F80213432B6057E7FFF7E0FE801B0228B9
:10059000EAD9B0E71A60FFF7D9FE524D06462B683C
:1005A0009F077FF549AFFFF7D1FE801B0228F6D9E0
:1005B000A1E76269504B7AB101221A60FFF7C6FECB
:1005C000484D06466B6F98073FF53AAFFFF7BEFE02
:1005D000801B0228F6D98EE71A60FFF7B7FE414D5F
:1005E00006466B6F99077FF52BAFFFF7AFFE801BB9
:1005F0000228F6D97FE7FFF7A9FE801B02287FF6C5
:1006000036AF78E7FFF7A2FE801BB8427FF640AF17
:1006100071E7FFF79BFE334D064641F288372B6F9B
:1006200098077FF539AFFFF791FE801BB842F6D9E6
:1006300061E72C4DAB6803F00C03082B3FF447AF88
:100640002E4E0023022A33603ED1FFF77FFE07467D
:100650002B68990132D447F6C07797FAA7F74FF481
:100660004032B7FA87F792FAA2F24FF07061B2FA0D
:1006700082F091FAA1F1D4E907321343626A02FAD7
:1006800007F7A26A5208013A82403B431343E26AE9
:10069000144CB1FA81F102FA01F10B436B600123B2
:1006A0003360FFF753FE054623689A013FF5F8AE25
:1006B000FFF74CFE401B0228F6D91CE7FFF746FE69
:1006C000C01B0228C4D916E7FFF740FE04462B687A
:1006D0009B017FF5E5AEFFF739FE001B0228F6D936
:1006E00009E700BF00380240007000407038024047
:1006F0000238024000004742800E474260004742F5
:1007000014498B6803F00C03082B10B520D14868FE
:100710004B684A68104B00F03F0047F6C07494FAEB
:10072000A4F1B1FA81F12240B3FBF0F0094BCA40C9
:1007300050435B684FF4403292FAA2F2B2FA82F26E
:1007400003F44033D34001335B00B0FBF3F010BD42
:100750000148FCE7003802400024F400554B1A68B9
:1007600002F00F028A422DE9F04105460E462FD3D2
:100770002A68940736D4D0073CD44E4B1A6802F04E
:100780000F02B24200F286802A68510700F18A8087
:10079000130707D5484A2969936823F4604343EA5D
:1007A000C1039360FFF7ACFF434BF0229B6892FAC2
:1007B000A2F2B2FA82F203F0F003D3403F4AD35CD4
:1007C000D8403F4B18600F20FFF792FD002007E054
:1007D000CAB21A701B6803F00F038B42C8D0012005
:1007E000BDE8F0813449A8688B6823F0F003034327
:1007F0008B60C0E76A68304B012A1DD11B6813F477
:10080000003FECD02C4CA36823F003031343A360F8
:10081000FFF79CFD6B68012B074641F2883815D124
:10082000A36803F00C03042BA7D0FFF78FFDC01BB8
:100830004045F5D90320D3E7911E01291B6802D852
:1008400013F0007FDDE713F0020FDAE7022B0AD185
:10085000A36803F00C03082B8FD0FFF777FDC01BB4
:100860004045F5D9E6E7032B0FD1A36803F00C034D
:100870000C2B82D0FFF76AFDC01B4045F5D9D9E7A4
:10088000FFF764FDC01B4045D4D8A36813F00C0FDC
:10089000F6D172E7F2B21A701B6803F00F03B3428D
:1008A0009DD171E70449E8688B6823F4E053034362
:1008B0008B606DE7003C024000380240B011000838
:1008C00008000020014B1868704700BF0800002096
:1008D00008B500F015F8000001230360014B0B6020
:1008E000704700BF0000002008B500F01BF8024B65
:1008F000024A9A6008BD00BF00ED00E00000000859
:10090000BFF34F8F0549064BCA6802F4E0621343F8
:10091000CB60BFF34F8F00BFFDE700BF00ED00E0ED
:100920000400FA050C4B1A68002142F001021A601B
:1009300099601A6822F0847222F480321A60074AA1
:100940005A601A6822F480221A60D960044B4FF072
:1009500000629A60704700BF0038024010300024E7
:1009600000ED00E0134A1449936803F00C03082BD0
:1009700010B5124B0AD00B600E4B114A9B68C3F3A3
:100980000313D25C0B68D3400B6010BD54685068F1
:100990005268C2F3881200F03F00B3FBF0F35343F8
:1009A000044A5268C2F3014201325200B3FBF2F32F
:1009B000E1E700BF00380240080000200024F400F6
:1009C000C01100080E4B1A6822F001021A6002786A
:1009D000012A1A680CBF42F0020222F002021A60D9
:1009E0004278012A04D11A6842F004021A60704762
:1009F000022A01BF024A136823F004031360704700
:100A000010E000E0044B002258609A601A6842F03F
:100A100001021A60704700BF10E000E0024A13684C
:100A200023F001031360704710E000E0084B002240
:100A30001A7040F635435843064B1960064B9A60CE
:100A4000064B421E9A4201D8FFF7DCBF704700BF39
:100A50001D0000202000002010E000E0FDFFFF004E
:100A600008B5064B1B6803B19847054B1B78012B53
:100A700003D1BDE80840FFF7D1BF08BD200000202A
:100A80001D0000200A4B1A6822F480221A601A689E
:100A900042F480321A601A689203FCD59A6822F0F8
:100AA00002029A609A6842F001029A60704700BFA1
:100AB00000380240032800F2B880DFE800F0024B63
:100AC00053A3162900F2B180DFE801F00C12171CC5
:100AD00021262B30AFAFAFAF35AFAFAFAFAFAFAFBA
:100AE000AF3A3F006A4A136B43F001031363704748
:100AF000674A136B43F00203F8E7654A136B43F050
:100B00000403F3E7624A136B43F00803EEE7604A1D
:100B1000136B43F01003E9E75D4A136B43F02003C6
:100B2000E4E75B4A136B43F04003DFE7584A136B7B
:100B300043F08003DAE7564A136B43F48053D5E75A
:100B4000534A136B43F40013D0E7514A136B43F439
:100B50008003CBE7072968D14D4A536B43F08003EC
:100B6000536370471C2960D8DFE801F00F151A1F86
:100B70005F5F5F5F5F5F5F245F5F292E5F335F5F53
:100B80005F383D425F5F5F5F4700414A136C43F04F
:100B90000103136470473E4A136C43F00203F8E705
:100BA0003B4A136C43F00403F3E7394A136C43F0F8
:100BB0000803EEE7364A136C43F40063E9E7344A6E
:100BC000136C43F48043E4E7314A136C43F400436D
:100BD000DFE72F4A136C43F40033DAE72C4A136C37
:100BE00043F40013D5E72A4A136C43F48003D0E79B
:100BF000274A136C43F40003CBE7254A136C43F0F8
:100C00008053C6E7122910D8DFE801F00A0F0F0F52
:100C100010150F0F1A0F0F1F24292E0F33383D0008
:100C20001B4A536C43F0010353647047184A536CDA
:100C300043F01003F8E7164A536C43F02003F3E740
:100C4000134A536C43F48073EEE7114A536C43F438
:100C50000063E9E70E4A536C43F48053E4E70C4A1F
:100C6000536C43F40053DFE7094A536C43F4804369
:100C7000DAE7074A536C43F48033D5E7044A536CF0
:100C800043F40033D0E7024A536C43F48023CBE7AC
:100C90000038024010B580B9A1F10D03022B0BD929
:100CA000164B4900032000FA01F4186802FA01F11A
:100CB00020EA04000143196010BD012804D1CB1EB5
:100CC000012BF9D90E4BECE702380528F4D801A323
:100CD00053F820F0ED0C0008F90C0008F10C0008A6
:100CE000B90C0008B90C0008F50C0008054BD8E752
:100CF000054BD6E7054BD4E7054BD2E70000024091
:100D0000000402400008024000100240001C0240A3
:100D1000000C024068B9A1F10D03022B26D9144B37
:100D2000F2B9012000FA01F2586820EA0200586086
:100D30007047012804D1CB1E012B17D90D4BEFE7CB
:100D40000238052812D8DFE800F003090511110761
:100D5000094BE5E7094BE3E7094BE1E7094BDFE71F
:100D6000012A01BF8A4059680A435A60704700BF90
:100D7000000002400004024000080240001002404F
:100D8000001C0240000C024010B580B9A1F10D0317
:100D9000022B0BD9164B4900032000FA01F4986886
:100DA00002FA01F120EA04000143996010BD012814
:100DB00004D1CB1E012BF9D90E4BECE702380528E4
:100DC000F4D801A353F820F0E10D0008ED0D000860
:100DD000E50D0008AD0D0008AD0D0008E90D000897
:100DE000054BD8E7054BD6E7054BD4E7054BD2E7D3
:100DF00000000240000402400008024000100240CF
:100E0000001C0240000C024010B580B9A1F10D0396
:100E1000022B0BD9164B4900032000FA01F4D868C5
:100E200002FA01F120EA04000143D96010BD012853
:100E300004D1CB1E012BF9D90E4BECE70238052863
:100E4000F4D801A353F820F0610E00086D0E0008DD
:100E5000650E00082D0E00082D0E0008690E000812
:100E6000054BD8E7054BD6E7054BD4E7054BD2E752
:100E7000000002400004024000080240001002404E
:100E8000001C0240000C024010B570B9A1F10D0326
:100E9000022B09D9154B5869012404FA01F1A24229
:100EA0000CBF08438843586110BD012804D1CB1EF4
:100EB000012BF9D90E4BEEE702380528F4D801A32F
:100EC00053F820F0DD0E0008E90E0008E10E0008DE
:100ED000A90E0008A90E0008E50E0008054BDAE788
:100EE000054BD8E7054BD6E7054BD4E70000024099
:100EF000000402400008024000100240001C0240B2
:100F0000000C024010B5A0B9A1F10D03022B0FD9BE
:100F1000214B07292ED889000F2000FA01F4186A06
:100F200002F00F0220EA040002FA01F10143196203
:100F300010BD012804D1CB1E012BF9D9174BE8E7CE
:100F400002380528F4D801A353F820F0650F0008F3
:100F5000710F0008690F0008310F0008310F0008F9
:100F60006D0F00080E4BD4E70E4BD2E70E4BD0E7C7
:100F70000E4BCEE70839C8B20728D9D889000F2010
:100F800000FA01F4586A02F00F0220EA040002FAA3
:100F900001F101435962CBE7000002400004024026
:100FA0000008024000100240001C0240000C0240F9
:100FB00010B50446827841780078FFF76BFEE2783E
:100FC00061782078FFF7A6FE227961782078FFF714
:100FD000DBFE627961782078FFF716FFA378022B99
:100FE00006D1E28861782078BDE81040FFF78ABF1B
:100FF00010BD000008B5054B1B6803B19847044AB3
:10100000536943F00103536108BD00BF2400002071
:10101000003C014008B5054B5B6803B19847044AA2
:10102000536943F00203536108BD00BF2400002050
:10103000003C01402DE9F3410546441C00F109073D
:101040004FF0010800262B788DF8003014F8013B92
:101050008DF801306846ADF80280ADF80460ADF857
:101060000660FFF7A5FFBC42EDD1054B68461B8823
:10107000ADF80030FFF7A6FC02B0BDE8F08100BF7C
:10108000D01100082DE9F041054688461746461C58
:10109000002418F8072016F8011B2878224102F0D6
:1010A00001020134FFF7F0FE082CF2D1BDE8F08117
:1010B00010B5074C074922680748FFF7E3FF074AC6
:1010C00023681268934234BF01330023236010BDAC
:1010D00064000020D21100080C000020180000203D
:1010E00008B5FFF7CFFC00210846FFF7E3FC0448F2
:1010F000FFF7A0FF034940F28710FFF797FCFEE7D8
:101100000C000020B110000870B594B00024214BF1
:1011100001941A6C42F080521A641B6C03F08053E5
:101120000193019B1C4B02941A6842F440421A60DE
:101130001B6803F440430293029B01234FF4800297
:10114000CDE908331023CDE90F2304264FF4A8730B
:101150000225CDE9113608A8072313930E95FFF752
:1011600063F90F232946CDE9033503A84FF48053D3
:10117000CDE906340594FFF7F1FAFFF7A3FB4FF42E
:101180007A73B0FBF3F0FFF72DF93046FFF740F923
:1011900014B070BD003802400070004008B5FFF781
:1011A000BBF8FFF7B1FFBDE80840FFF7DBBB7047B6
:1011B00000000000010203040102030406070809FD
:1011C00000000000000000000102030406070809F7
:1011D0000102818181818181818080808181808003
:1011E00081808080808080808080808081808080FD
:1011F00080808080808080808080808080808080EF
:101200007F7F808080808080807F7F7F7F7F7F7FE7
:101210007F7F7F7F7E7F7F7E7E7F7F7E7E7E7E7EE6
:101220007E7E7E7E7E7E7E7E7E7E7E7E7E7E7E7EDE
:101230007E7E7E7E7E7E7E7E7E7F7F7F7F7F7F7EC8
:101240007E7E7E7D7D7D7E7E7F7F7F7F7E7E7E7EBD
:101250007E7E7F8080818282828281807E7D7C7B97
:101260007B7C7D7F808282828181807F7F80818282
:10127000848585858482807D7B7978787A7C7F827D
:101280008485858583817E7C7C7B7C7E8285888B42
:101290008C8B88837F7975737273767B81868A8C59
:1012A0008C8A87837E7A7878787B8085898C8E8C0F
:1012B00089847F7973706E6F72787F848A8D8E8C4B
:1012C00089847F79757474767A80868A8D8E8B8610
:1012D0008079736D6B6C6F747B83898E908F8C8635
:1012E000817A75727173777D83888C8E8D89837C0A
:1012F00075706C6B6D727880888D90918E8A837D0D
:1013000077727072757A80878C8E8F8D88817973F1
:101310006F6C6C70767D848C9091908C867F7974E4
:10132000707073777C83898E90908D878078736ED0
:101330006C6D71787F878E9293918D867F78736FB5
:101340006F73777D848B8F92928F89817A74706DA1
:101350006E72787F878E9192908B857D77726F6E9B
:1013600072777D848B8F91918E888179746F6D6E89
:1013700071777D848B8E8F8E8A847D787470707384
:10138000787D848A8F91918E88817A736F6C6D6F6E
:10139000757B82888D8E8E8B867F7A75727174785C
:1013A0007D83898E90908E88817B74706D6D6F7453
:1013B0007A80868B8D8E8C88837E79757374777A2C
:1013C0008085898C8D8C88827D77736F6E70737841
:1013D0007E84898D8E8E8B87827C78747475777C01
:1013E00081868A8C8C8A86817B7672707073777C1A
:1013F00082878B8E8E8D89847E7A767474767A7EDF
:101400008286898A8986827E7975737273767A7EFE
:1014100083878A8B8B8885817E7A7878787A7D80BD
:101420008385858584827F7D7A787878797C7E81D2
:1014300085878889888684817E7C7B7A7B7D7E8097
:101440008182838281807F7E7C7B7B7C7E808184A5
:10145000858686858381807E7D7C7C7D7E7F808283
:101460008283828281807F7E7D7D7D7D7E80818280
:10147000838484848381807E7E7C7C7D7E80818168
:10148000818181807E7D7B7A7A7B7D7F8081828372
:10149000828180807F7F7F807F8082828281807F47
:1014A0007F7E7D7C7C7B7C7C7C7D7E7F818181815D
:1014B000818180808080808080818180807F7F7E2C
:1014C0007C7A7A7A7B7B7D7F81838484838382812B
:1014D000807F8081838485858483817D7A78767519
:1014E000777A7D81848788888684807E7D7D7D7FF4
:1014F00082858889898885807C7874727374777C0A
:101500008185898A8A8A8683817F7F808184868893
:10151000888886837F7B78757576787B7F818283E8
:101520008283828181818182838585858684827E92
:101530007B7976757677797D808283838281807EE0
:101540007F808386888A8A8986837D7A767573739D
:1015500076787C7F81838483817F7C7B7C7D7F82A6
:1015600085878989898985807B76726F6E6F7378AC
:101570007E848788898985827F7C7C7E8184878838
:10158000898986817D7877777675767A7C7F818385
:1015900086878785848182817F8081808183818223
:1015A00082817F7C7A797877797C7F828688898B43
:1015B0008B89878482828281807F7D7E7C79777728
:1015C000777A7E7F81838484848183858585848402
:1015D00085858380807D79777674777B7C807F8139
:1015E00082817E7E7F7F838385888A8A8884807DCE
:1015F0007A797675757679797778797C7E82848642
:10160000878889878687878684807E7C79777574CA
:101610007574737277777E828386858986848283E8
:1016200082858584878687827D77747271707074F5
:10163000797E82828385868685898A8C8B8C8D8A49
:101640008785817D79757371717274787C7C7F7EFA
:101650008381878B8C8F8E938D8A84827E7C787633
:1016600077777C78777678777776777A7E838788CE
:101670008B8E8F8F8B8F8A86827F7C767575767442
:1016800076767A797A797B80807E828387868A9360
:1016900090928B8B8179726C69686B6D757A8181A0
:1016A0008282807C7B7B7C7E838A8E8F908F8C86EF
:1016B0007D797672726F7375797D7D7D7F81827D94
:1016C0007D80838786878A8B86828088807E7979F1
:1016D0007871716F717278797F8287888A8C898935
:1016E000898887848283807D7B7C7B7B78797D7D04
:1016F0007D7D807F808183868A8D8F8C8C8C8A868D
:101700007F7B7876716F707E7C7D8085847C7C7831
:101710007A787D7F898C919194948B85807C736D90
:10172000696E6F73757D83868584868582818485E5
:1017300086878D8F8F8C89837E77706D6B6A6A6DDB
:1017400070747B858188898C84818484827F85857F
:101750008B858481837B727172726C6A6E7576760A
:101760007A85898B8C9295908D8D8F86807D7E7CFD
:1017700075737476716F6F75737270777B818886FD
:1017800093989C92918F8B81797873757274777D21
:10179000797A7D7D7D7675757A7B7C848D95969A38
:1017A0009DA1948B87837A6F6C6D726F72777D7D4C
:1017B0007B7B7F7E7B798185908F919D9D9C8F8D9A
:1017C000827D706A69686B6B747C827E8186878398
:1017D000807E818382848B8E8F8D8F918B857E7BA3
:1017E00074716F6D6E7073787B7D7D828387868662
:1017F000858A8A8B8E878C86847D7A73716C676C00
:101800006B706F787C8382858A8D8D898A8A8982C4
:1018100082837F7A797A7B78797A7B79787A7A7918
:10182000777B7E828383898B8D898C888783818374
:101830007A7C777975767276757178787C7D848715
:101840008C8C8E9292908C888680797675736F716D
:101850007477797F83838687878685848785858863
:10186000888B888883837B7A7577787179777D799F
:101870007D7C817F7C828185838A8D8E8D8E928C0A
:1018800088817D79736C696C6C6D717A7D888A8FC3
:101890009392908F8E848580837E7D8080807A7EF7
:1018A00074737174766E787D807E83878987848572
:1018B00082838082858786858786827D76726F6C3B
:1018C00068696D70747A848D92959A9B96908D8AD2
:1018D0007F7A777873727679797B7A7777777F7486
:1018E0007C818584868C8D8E878885827D7B7D7EBC
:1018F0007F7C8083817E797974716F7074757A7F53
:10190000868F9394979C948D89847F757372706D84
:101910006F7475787A7C7D7E8983858B8D8D878BBE
:101920008A8A827F7F7C797477797C7A7B808281D6
:101930007B7D7C7876777D7D8082898C91918E927B
:101940008F88817F7B767171726F6F7177787C7D04
:1019500081838790878D908F898486817F74767547
:1019600074727177797F7B808486838085827F7BA8
:1019700080838081828787888A888A86847F7D7930
:10198000767673777478797D808386848A86918C65
:10199000888D88877F7E7C7A727273737674787E86
:1019A000848183898C878484837F7B7C7C7C7A7C24
:1019B0007C7F80838785848683807D7B7B797A7A30
:1019C0007B7D808283858482828088807D81818105
:1019D0007A7B7B79757675787A7B7F828788898B2D
:1019E0008B86807E79777373747677777D80838238
:1019F0008A8B89898585817D7A7B7C7B7B7E8482CD
:101A00008081827C7976797E777E80868685847FE8
:101A1000817F7C787B80818384898A8B86817E7BB1
:101A2000776E6F7175747980868B8C8E90959089A6
:101A30008785807A78797A7B7D7F818280807E7BC2
:101A40007574727B807F888A918E8B8881807C7987
:101A500073757B7E8182848587827B7774746F6FD8
:101A6000737A7F868D90939593908B84817C777227
:101A7000747778787B808280807E7E7B78747476C1
:101A80007A88868B8B8F918A84797874746D6D7661
:101A90007B8081838485837F7873727276787D847E
:101AA0008D9391908F8D837B7775737376787E801D
:101AB0008384868583817F7E7C7A7A78787A7B8935
:101AC000898989888B85807772737776747A7F8429
:101AD00088888684847F7C777675798286888A8FE9
:101AE0008F8C887D75747777777B83888C8A8887DD
:101AF00085857F7D797A7B7C7878797A797E898211
:101B000088878A8C86847879787977757C7A8184DD
:101B1000898681817C7F7876737B858485858A8AB6
:101B200088817979787E808286888A8987807B7AA5
:101B30007B7A7776797B7D7D7D7C797B7A878688D9
:101B40008B8A8F87877A747272747075747E898FAE
:101B50008C838483817B7674758084878A89898865
:101B6000888179757A81858685858684807C797A75
:101B70007B7E818281828483827C76717889888968
:101B80008B8F8F8883736C6A6D6C6F797F8C979B5A
:101B9000938B867C75706F6D727C868E8F908B8830
:101BA000847B7570767A84888986858582827E7C3E
:101BB0007B80807F7F7D7D7B7B746F717786868E57
:101BC000908E8E837E6E6A696A6F77848B95999802
:101BD0008E82766966666A6E78858C969692898121
:101BE0007C71706E787F8B90929088847D7E7977FF
:101BF00075777A7E80807F7E7D79757574808B8E17
:101C000097949087807B6E6A6A6E77848D8F9494A8
:101C10008D80756D676C737A828B93989B978A7EA3
:101C20007874727579828C959693877F76767674C0
:101C300075767E8489898784817E79727171858EBB
:101C4000989B9490837E716663626C7A888D92987B
:101C5000948B7C746A696F747C818D9297968C8169
:101C600076736E717578848E96938B7E76747474A9
:101C700074777B84898B8985827B77706B6B7087A7
:101C80008E989A908B7E796A5E5F64717F8E929750
:101C90009A9283746C62656C747A8492969B978B2B
:101CA0007B716F6A70757A88939B958E7F77737559
:101CB0007472777D878B8F8B86837E77716B6D7364
:101CC0008995989F969082786C5E626976849398E5
:101CD000989C9183746A626471777E8B989F9F99B8
:101CE00087776F6C696E767E8E9BA0988D7E747000
:101CF00072717379828B91938D88807B726F686A21
:101D000073869697A1978F8275695A6168748390DC
:101D100098989D9383726861606D737C89989D9C8F
:101D20009684756A67656B757E8E9AA0988B7B6FBB
:101D30006D6E707279828A908F8A837B766E696409
:101D40006972839698A39C9083736A5B5E667080C9
:101D50008F999A9F958474665E5D69707A8998A060
:101D6000A09987786F68656B7680919EA1998D7D2B
:101D7000706E6E71747C838A8F908B867E78706DA6
:101D80006B6D7781999CA3A19187756B5F5E676E80
:101D90007D8D989D9F98867869605F68717A8A9634
:101DA0009EA09B8C7E736A686D757E8A959A988ECC
:101DB00081736F6E7174797F858B8E8B857F78735D
:101DC0006E6F6F777C8D96989E91867A6F66646849
:101DD0006C757F8C919694867A7169666A6F74804F
:101DE0008E969A988E827B736E70747B848E92909E
:101DF0008A827974727275777D8286888886847FFC
:101E00007C7777797A7B7C848D91928D80797570DF
:101E1000727171767C84898B88837E7C78777A7AFC
:101E20007F868A8D8C8883807C79787A7D8187898A
:101E30008987837F7B797A7D808183828384848391
:101E400081807F818282807D7A787C7C80807D80A9
:101E5000808282807E7E7E7F7F7E7B7B797C7C7EA3
:101E6000808184858683807D7B7A7A7C7E82888867
:101E700087827E7C7A7B7C7F838684827E7E7F7F66
:101E80007F7D7D7D8082848480817F7F7F7D797767
:101E9000797A7D7D7B7C7C808483807D7B7C7E7D6C
:101EA0007E7E7D80807F7E7D7C7D7F7F7D7F818546
:101EB0008786837F7C7A7B7B7D7F838685898A8604
:101EC0008481807D7E7D7F818583848382848182FD
:101ED0007C7C7A7B7C7C7C7E8284847F7D7C7E7E25
:101EE0007E7D7E82858684807D7B7B7A79797A7E11
:101EF000828587868381807E7C7B7B7E82848483CF
:101F0000858686847F7D7E838483828181838481AC
:101F1000807D7C7E7E7E7B7C7E818584837D7C79DA
:101F2000797979787A7D7F8282817E7D7C7D7C7BE8
:101F30007A7B7E8083817F7E7E7D7C7B7B7F7F82C0
:101F400081818180807F7F7D7F8181828282838683
:101F50008686848181807F7D7B7C7D7F8183817E7D
:101F60007D7D7F7F7E7D7E7F8081807D7B7C7D7D92
:101F70007C7C7C7F8282817F7F7F7F7F7E7F7F8171
:101F8000807F7D7E8181817E808283837F7D7F8053
:101F900081807E7E80818081818383848486878422
:101FA000827F7D7D7D7C7E7F818384858381807F30
:101FB0007F7E7E7E7F81818281807F7F8080818124
:101FC00081817F807F7E7D7C7B7C7C7D7D7F80812D
:101FD0008382838282827F7E7D7D7E7E7D7D808204
:101FE0008383838382817F807F81817F807D7E7EEA
:101FF0007C7C7B7F808181818485837E7C7B7D7DF1
:102000007C7C7B7F8080817F818082817F7F7D7CE3
:102010007B7B7C7C7B7C7C7E807E7E7E80807E7FEA
:102020007E81827F7D7C7F807E7C7C7F82838181BC
:1020300081818281817E8081807E7D7E7E808081A3
:1020400083868583818081807F7E7E7F8080807F84
:102050007E7E7E80807F8080818383827F7E7C7D88
:102060007D7D7D7E8082838284838382807F7E7E6D
:102070007D7E7D7D7E7E8182818183858684828155
:10208000828485848180807F7E7C7C7F8385878538
:102090008583827F7B7A797B7A797B7E7F81807F63
:1020A000808282828281828181807E7D7C7C7D7E35
:1020B0007F808080818281807E7E7D7C7B7A7A7B3E
:1020C0007C7E7F808282838282828381817F7F7F08
:1020D0007E7C7B7B7A7C7982837F7D7B8083817E23
:1020E0007A797D7D7B7B7A7D8182817E808285830A
:1020F000807E808281807D7E7F80807F7E7F8183E5
:1021000082817F7F81807F7E7E7E7E7E7E7F8080DB
:10211000818283838282818181818182817F7E7EAF
:1021200080807F7E808284838282807E7C7D7E7FB1
:102130007F808080818181807F8181838183838290
:102140008280807F807F8080807F7D7E8082818092
:102150007F7F8080807F7F7E7E7E7E7F7F8080808D
:102160008181828282818081818180807F7E7F7E69
:102170007F7E7D7D7E7F7F7E7D7C7D7D7D7C7C7D89
:102180007C7C7C7D7E7E7E7F7F7F80807F7E7F7F6C
:102190007F7F7E7F7F7F7F7E7D7D7E8080807F7F53
:1021A0007F7F7F7E7E7F807F7E7E7F808181818139
:1021B0008384858482807F81808080818181818108
:1021C00081818181817F7F7E7E7E7E7E7D7E7E7F1E
:1021D0007F7E7E7F8080807F8081848381818283F7
:1021E00082838382828180818182818180808282D8
:1021F000817F7F818384828080828382807E7F80D2
:10220000828282828383848381807F7F7E7E7C7CC6
:102210007C7E7F7F7F7E7E7E7E7E7C7B7B7C7D7DE9
:102220007D7E7D7D7D7D7E7E7F7F808282828081BE
:1022300080807E7D7B7A7B7D7E7D7E7D7F818181BE
:102240008080807F7E7E7E7F7F7E7D7D7E8081829E
:10225000818384868582807F7F7E7C7C7B7D7D7E82
:102260007F7F818181807F7E7E7D7D7D7E7E7E7E83
:102270007E7F80818080808182828282828383824D
:10228000807F7F7F807F7F7F808384838180808148
:1022900081817F7E7F808182828181818181818134
:1022A0008181828282828281807F7E7E7E7E7E7F2D
:1022B0007F7F7E7E7E7E7E7D7C7B7C7E7F80807E3F
:1022C0007F818382807E7D7F818281808082838402
:1022D0008483817F7E7E7D7E7C7C7C7D7E7F7F7E15
:1022E0007E7E7F7F7F7F7F7F7F7E7F808281807EFB
:1022F0007E7F7F7F7E7E7E7E7F7F7F7E7D7C7B7C00
:102300007C7C7C7D7E7F7F7E7E7E7E7E7E7E7F7FF0
:1023100080818182828281808081828383838384A1
:1023200084848382807E7E7E7E7E7E7E7E7F8081B0
:1023300081807F7E7E7F7F7F7F808181818282819D
:10234000818180818182828382828181807F7F7E80
:102350007E7E7E7F7F7F7E7E7E7F8080808081818B
:102360008281828281818181818282828181818256
:10237000828180807F7F7E7D7D7C7B7A7B7B7C7C85
:102380007C7C7D7D7D7C7C7C7D7E7F7E7E7E808175
:102390008181818080807F7F7F7E7F7F7F7F7E7E47
:1023A0007E7E7D7C7C7D7D7D7D7D7E7E7E7E7E7E57
:1023B0007E7F7F7F8080808181828281807F7F7F1E
:1023C0008080818181818281807E7D7C7C7C7B7C20
:1023D0007C7D7E7F7F8080818181808081828282FE
:1023E00083838483828180818180808081818281D6
:1023F000807F7E7D7D7E7E7E7F7F7F8081828383E6
:1024000082818181818181818282828282828281B4
:10241000818181807F7F7F8080807F7D7C7C7B7BD2
:102420007A7A797978797A7B7D7E7F8080818384DE
:102430008484838281807F7F7E7E7E7E7F80808198
:102440008182838282817F7E7D7C7B7B7B7C7D7DA4
:102450007D7E7F7F7F7F7E7E7E7D7C7B7B7A7A7CAC
:102460007C7E80828283838282828281807E7C7B6A
:102470007A7B7C7C7D7E8081828283848484848359
:102480008281818181808081828282828281817F3A
:102490007E7C7B7A7A79797B7C7F8284868686844F
:1024A00084838382817F7E7C7C7C7E808284858520
:1024B00085858686858482807E7D7D7E7E7F808107
:1024C0008282828281807E7C7A7877767676767B4D
:1024D0007D818587898A8B8987868483817F7D7AC0
:1024E0007A797B7C7E8081828282828282817F7DFA
:1024F0007B797878797A7C7D7F8081818181807E0B
:102500007C7A78777675787A7E82858888898887DC
:10251000878584827F7D7A787777797A7D7E7F80E0
:102520008182838484838281807F7F7F7F8080819A
:1025300082828281807F7D7C7A78767675777A7DDB
:102540008284878888888686848383807F7C7B7B5F
:102550007B7E808384858585858484848382807F57
:102560007D7C7D7D7E7F808080807F7E7D7B797796
:1025700075737374787B8085888B8C8D8B8A898644
:102580008583807D7A7A797A7C7E81828382828259
:10259000818181807E7C7B7A7A7A7B7C7E8081815E
:1025A00081807F7D7C7A78767574777A7E84878B5C
:1025B0008C8C8B89888583817F7C7A7978787B7D08
:1025C0007F8282838283828282817F7D7C7B7B7B10
:1025D0007D7F818283838382807D7A787573727236
:1025E00075787D82868A8B8C8B89898583817F7DB6
:1025F0007B7B7A7B7D7F82848687868685848381C8
:102600007F7D7B7979797A7D7E81828282807E7CF2
:10261000797673716F7073777F83888B8C8D8B8BDA
:102620008A878682807D7C7C7B7F7F818484858590
:1026300086858483817F7D7A787777787A7C7E80BF
:10264000818281817F7B79757370737579808388CE
:102650008B8D8D8B8C898685817F7B7B7B7B7F803F
:10266000838586878686858484817F7C7A77767762
:10267000787B7D808282838382807D7A767272739A
:10268000747B7F838587888788888686827F7B792D
:1026900079797E81848888898889898889878480F6
:1026A0007C78767576777A7C7E8081807F7E7C7977
:1026B0007672727273797C8183838481838383844D
:1026C00082807D7B7A7A7E82868A8B8C8B8A8988CF
:1026D0008A8886827E7975737275777A7B7D7E7E35
:1026E0007E7D7B79767576767B7E8184848582811A
:1026F00082808281817F7E7D7B7F8184888B8D8BB0
:102700008C8B8889888885837F7978747575787AC9
:102710007B7D7D7D7D7B7B78797B7A8082858786DA
:1027200085817F7E7B7D7B7B7A797C7B7F828489C0
:102730008A8D8D8D8D8A8B88888683817E7C7A793F
:1027400079797B7C7D7E7D7D7A7975787A7D8485CB
:10275000888785827C7C7978777474707374777ECF
:102760008086888A8C8C8E8C8D8C89898483807FEE
:102770007E7C7C7B7B7B7B7C7B7C797774727677C1
:102780007F84888B8887817D7D78797673706E7180
:1027900071797F83888B8C8D8F908F908C8A8784C2
:1027A0008381817F7E7D7C7C7C7D7D7C7B77747169
:1027B00074767C84868B8A888681827E7E7C767322
:1027C0006E7071767E81868788898B8E8E8F8E89DA
:1027D00087838281828281817D7D7C7E7F7E7E7AFD
:1027E000767275777D87898C8A87837F817E7E7EEE
:1027F00078736E6F70747D7F828483848589898A03
:102800008984837F8081838482817D7C7B7D7F7FBF
:102810007D7873717679848B8D8E8986807E7F7BBF
:102820007A77726E6C71747B828283838384868BE9
:102830008888837E7D7D8183878783827E7F7F8278
:10284000817E7A736E71797F8B90918F8B88838470
:10285000817A76706B6A6E757A8285848687898CB8
:102860008D8D85827D7A7D7E82838583838383843B
:1028700084827E78736F6E777B838B8D9090928E3F
:1028800089887D75706C6B6C7274797F82858C8F92
:102890008F8F8D8882817B7B7B7C7C7D7F7F828418
:1028A0008381817C7973716C71777A868A8F90923B
:1028B000928A888177736F6D6A6F72747B80858866
:1028C0008F8D8D8B898481807C7B7C7B7D808182D8
:1028D00082827E7D7C7975726D70757A848A919121
:1028E00093938B8881787470706C7073757E838B12
:1028F0008A8E8B8688878584807D797C7F82898893
:102900008983827F7C7D79746F6A6F767C878A91F8
:10291000929596908A81787270706E7073777F88C6
:102920009090918D88868684807C797A7D85878A4F
:102930008989878786807A746E6A696E78798386DA
:102940008D9497998F877E75726F6F6B6A7176829F
:10295000899090908F8A86837F7776767C7E838538
:1029600085888A8C8B877E76706D6B6A6B76757FB7
:10297000878D9596988C847E75716E6C6969737A73
:1029800083898D8E8F928D867F7A7375777C7D811A
:1029900085878C8D8D89857E77716C69686C7B7A73
:1029A00082888E96989B8C827D75706C6B686B7834
:1029B0007E86898D9094978D837C767376777B7FE6
:1029C00084888A8E8F8F8E877D746F6C6C6A6D7B26
:1029D0007A868E95999697898380756A65686971FC
:1029E0007C7F838A92949794887E7A767174767DC0
:1029F0008186888A9193928C817773726B68636EFB
:102A00007F7F8A8B94999898857F7A7167636B6BC7
:102A1000757C7F848D9996968E827A7A756E7076A3
:102A20007E8287898E96958C857F78746E646364C8
:102A30007A827E888D9B9B988F7F807A6C61636F92
:102A40006E777B828D989B91918D857C756D6C7274
:102A5000797C80888F95968F888481776F67626292
:102A60006A807C818D969E9696887F8073665F696A
:102A70006D6C78808B93989590958E7F76716E6C47
:102A800070767B868C9294948F89867E736C636358
:102A90006271827985919E9D939284817F6E615F40
:102AA0006D6C6B7A868F9297949496897874736F15
:102AB0006A70787E878C9295948E87847B71696426
:102AC00065637A7E7B8D979F949390817E76696211
:102AD000666C6670838A8D919997959080767873ED
:102AE0006C6B777B80898E979692898784787065E6
:102AF00064626B82797F939E9F9293887E7E7164DD
:102B000061686B6979868A91989994938B7C7874C3
:102B10006F6C70797A838C9398918E8A887E706BB3
:102B2000626664767E758B9AA1989090827E7766B5
:102B300061656A696F7F878F9698979491827775A0
:102B40006F706C7078808B8D95968F8E8983726D87
:102B50006762636B7E748098A09D92928A7E7A6B86
:102B6000616467686B7B868C959A98959289787575
:102B7000716B6E6B757D888D8E9A968F8985796C59
:102B80006D646162797E7791A0A2989491827B7145
:102B90005F5F67676875868C949E9B99968D7D7341
:102BA00073666A6C6F7B858E8D999F908A877F6E26
:102BB0006A665F5D6F837788A0A49C96968879711A
:102BC000615A63656270858D92A0A39A9990827212
:102BD0007167616C6E76838F9194A39889868372F6
:102BE00065645F5B64847C82A0A8A2989C8A7770ED
:102BF00063565A64616B858F93A1AB9E98948470E1
:102C00006A695A65707481919996A1A18B818276C7
:102C1000615F5F5E5C7B8A809CABAB9C9A91766CBB
:102C20006355515E6567809599A0ADA897938570AF
:102C300063655C5B6F7782929F9DA0A4927F7B7897
:102C400060595C5E5F6D938894ADAFA59492796591
:102C50005E524D57676B7B98A0A4ACAD988C826F89
:102C60005D5E60576B7B8693A3A49EA4977F71746F
:102C700065535A5F67678E9991ACAFA8938C7B5F61
:102C80005A544C5367747A97A9A5A9AC9A867D6E5D
:102C90005C58625A6A828B96A4AA9E9D977D6C6A44
:102CA00068565A636B7086A597A3AEA796837A6120
:102CB00056575054697D8294ABAAA4A69B81766C2A
:102CC000605963666B869199A2A89F94937D6A640C
:102CD000695F5B67707981A39F9BA8A395807665E8
:102CE000575A58576B828790A5AAA09C9680726B02
:102CF000645E626E718594979FA29D8C897D6A62E5
:102D00006669606873807E99A3959F9E947F756ABB
:102D10005A5C5F5D68818C8B9CA79E949081706CDF
:102D200065606675767F9697999B9889817E6B63BF
:102D3000666D666B747E7D8FA29297999383756D95
:102D40005F60635F677E8E8A95A39D928C84726DAF
:102D500068636A797C7E959C9797968B7E7D726777
:102D600069716E6E777F80849E968E97948B787350
:102D70006761696568778D8E8D9E9D958B86776E70
:102D80006F67697885838C9E9B97938A7E7D776930
:102D900068747671777D827F93988A93938D7F761E
:102DA0006F61696B687085938A9499958D847A6E4A
:102DB000726E6872848988949B9693867C7B7C6D06
:102DC00066717C7675797E7E80948B8B908E897B04
:102DD0007467646D6A6A768E8E8B959491887F7025
:102DE0006F746B6879898B8D9698988D7A7A7D76D9
:102DF000676C7A7C77787A827B8593888C8F9084D5
:102E0000797265686F6C6D7F938D8F9392908577E3
:102E10006A7575686B84918D8D96999781767D7FA3
:102E2000726673817E79797E817B8F8D8890918D9A
:102E30007F796B646D6F6D748B958F938E918D7EA2
:102E40006B6A787268748D959192969A9179757C77
:102E50007C6D6A79837F7C7A7E7E7F908988909171
:102E60008A7C7368666F6F707A909691918B928668
:102E700074646B796D6A7E93999192959888727556
:102E80007B776A6E7D837F7D787D7C828F8589905C
:102E90008F86757066687070757E9898918B8C902F
:102EA0007B6B626E796E72859C9B8D8F94937D7027
:102EB0007579766D728086837C777D7A888D828B3A
:102EC000919180736E656C727474879F9990898EEE
:102ED0008974655F737970798DA19B8C8D918D78E4
:102EE0006E7378776F778188857A767D79818C8328
:102EF0008A919280726F646B74767688A49A8C89BA
:102F00008E846C625F7379747F94A6998A8D8D88A4
:102F1000716D73797A727B858E8478777D788489F8
:102F2000808A91917A726F667076777791A693888E
:102F3000868B7D6760617A7F798499A99385878A7A
:102F4000856F6E73807D757C88908175777A788BBC
:102F5000867E8C958E75726D6A7679777B9BA38E53
:102F6000868387766860678383818A9EA58D828049
:102F700087806F7278837E7A7F898A7D7376757B8E
:102F80008F80828F98887272686D76787582A29C25
:102F90008A82838370665F708685838DA09D867B21
:102FA0007E857C6E757D857E7C8188857970727169
:102FB0007B8E81859199877370656D74757285A418
:102FC000998983857F6E6660738785838FA09980DA
:102FD0007B7E847871787E867F7F818984786E702D
:102FE0006D7F8F8088959E85746C646F7374708C10
:102FF000A5978A84877E6E6461798A858590A2937D
:103000007F7B80867878788187807E808982766EE3
:1030100071718C8F808C999C7D71666774747375E7
:1030200098A5948680837A6C6264818C8887909C52
:103030008B7C777F857C7D7A82847F7B7D837E72AB
:103040006F7078958C848C9B94746A5F6C747672C4
:103050007FA2A18F817E7F72695F6A878C898A9542
:1030600097867C7580817C7B7B8382807A7D7F7C68
:103070006E6D6E869886898E9D876F605D7275769F
:10308000728DA79D8D7C7D7B70645E748C8F8C8D22
:10309000939484797481827D7C7A8383837B7C8022
:1030A000796E6E709195898A939B7E6C5962747A61
:1030B000777899A89A877A7B776D62617F91928CF5
:1030C0008C949081747782817D7A7B8184807B7BF4
:1030D00082736E6C809B898A89998E7460546E7B32
:1030E0007B7388A6A4917B757974665D6F8D9691CC
:1030F0008C8B938A786F7A857F7D7B7D84837D75C9
:103100007C7A6E6E7096948B8B8E947D6A515E7510
:103110007F797E99A59D857373766E60677F95979D
:10312000928A8A908273727F837E7F7B7E85837C86
:10313000757D71706D899A8B908E9586755A556BD9
:103140007C7D7B93A2A4927A6F75756462768F9A68
:103150009890878E8C786F7983807F817A8186833F
:10316000767977706E79988E9090948C7E685161A4
:10317000727F79889EA19C847271766E5D6D839753
:103180009C938A85918270757C827D827A7A83860F
:103190007D7677717176948B8B91938E7D72535D72
:1031A0006B7978829B9D9B8B746E747260647E8F4A
:1031B0009C958C848A8A73717A807E807F797E86E2
:1031C0008077767072708F928893929580795B5633
:1031D00068757B7B96A09D937C707274695F788B19
:1031E000999A9089878E7E75787E7E7F817C7D839B
:1031F000887E7C71726F7E99868F939D8D7D6D55D3
:10320000626D7A768BA1A099887873766E616B86F1
:10321000939A948C888E88777A7C7C7A807D7C8067
:103220008583807C6E6F6F8F90858F969D85775C90
:103230005A6773757999A29E8F7E737573655F77F0
:103240008E95958C888B8E7D777B7B797B7D777C4B
:103250007F848181756D6D779486878E9D957F6B58
:1032600054616C786F859EA198857873796C5D67E1
:103270008493908F898B9086797A7F787A7A7A781E
:103280007E83848680716E6D7991858894A3927A0D
:103290006558637076718EA2A29283797876645FA6
:1032A000718E918E8F8E93908278807E7A7B7A79E0
:1032B0007B8386888780706E6B808E848C99A38CCC
:1032C00076605C6672757994A1A18E80787B71625C
:1032D0006679908E8D8C91968D7E7A827D7A7976C4
:1032E0007A7E868688877D6F6B697B8E85909AA1B2
:1032F0008A72615A6772787A93A39E8E7F7B786D0B
:1033000063647C8C8C8A8E9794887A7B7E7C7776BB
:10331000747D8288878786796D666471908A8F9DB7
:10332000A18A72645761717A7792A59D8C827C72B2
:103330006A63637D8C8B898F9A9386767C807D7699
:1033400072768189888488887A6A646470938D8EA5
:103350009DA28C72675762737A7690A79D8F817B4E
:10336000716D62627C8C8C8990999384757A837E6E
:1033700077717A868C868489887A6C62666B879589
:103380008C9D9F94766E605D6A747C88A49B908708
:10339000827466646578878A86939B9182787E833F
:1033A0007F77747E888A8184878780716864716D75
:1033B0008A91949C948A7475605C667B898F9C91D9
:1033C000918A7E695F6B708185858F9B96817A80FB
:1033D00085817B777E8A887F7E8586857A6F6A6F16
:1033E0006F6C8F91929794887B765B5C6E86858EEE
:1033F000988F90867C616871747E828C8F96897EAE
:103400007E8284817C7D84887F7C7B8184837D72C5
:10341000716E6C688B8D909798917D74595E7285F2
:10342000808A958F8E897A646E71727C8788879383
:10343000838281878685867B847C7C747C84848C73
:103440008378706A665B7B9091A39E99807A5E56C2
:1034500069778280939293917F6E686F6E797F8097
:1034600089918A868B898A8984777E7C7675808823
:103470008B948A7B6F675D5B668C9DA7A59B8F7D18
:103480006A555A697F818E9798968B7A6667696FBD
:103490007980858C9591898D908A7D76777A7577FC
:1034A0007F8893998F7C6F665F575C689AB3A7A1FA
:1034B000989075674D4D6A878C8B9C9A9B9173573A
:1034C0005C6D73767F8A98A195848C907E727374FC
:1034D000777E7D84929C8C81746A635E5C60779653
:1034E000B0A29C968B7860504F6E878E8995A09A7B
:1034F000866A5B5D6E77767C92A19F8F817C8885E2
:10350000736D7A8887827F888C8B7C7371736D6C06
:103510006E73798FA59393908975696261778286BE
:103520008292928782726C697A767B8C9192898979
:103530008289897F7A8188807B7878828584808976
:10354000887B746C6763727493A19E9C928A706C82
:103550005F5E687B8385949595877A6B6D74737DC8
:1035600081898C97948F8881817C7A6E70757E803A
:10357000899195988A796B62595B67727FA8B5A724
:103580009A897B695D454D72909293A1A09880685D
:103590005A6572747D8B9AA0A196887A71706E6D4F
:1035A00075818A8F8F92949087786C6063666F7A4A
:1035B000808896B39D867B706960656178919A8EEC
:1035C0008D92888171656E8181808D9496978D7AB8
:1035D000767976777A7C83908D87888C90887F6DDA
:1035E0006E7374726D79808C7D8F948482787D6F18
:1035F000746A6F80858382978F8B7F7776727978F4
:1036000083898D8B8C8E81796C6E7179848892948C
:103610009A8D7F757475716F6B7984827C777A72FD
:1036200077867A848E8C7D7A796C6E767F838F91A3
:103630008D8D8B7A6E7677797F828691938076777F
:1036400079767A848E9692877D7B7B7A7B797F856B
:10365000867C71706E70686C789DA490918B877376
:1036600065545F7F969D9A9F979481655C68777C8F
:1036700088919FA49C806E6C676C718391A19E92CF
:103680008E847F7070707A837F807C7B7474787492
:103690007979859289888487807C7573848F8B7E05
:1036A000878486817D787B847D8085887F7A777723
:1036B0007F7D7B8087888D8D8581817D7573757D0C
:1036C000837F77777F7E746F707876717083978F42
:1036D00092908B847D6D67777F82818E8E8D8A7BC1
:1036E0006E6A7672767C82888C8E7E7C7F7D767523
:1036F0007A818C86838180807A79797F827A7472EC
:10370000787C7E807A7A7A7D8189948C93948A8081
:10371000787571777B7E858D8F8B84777174787BDC
:103720007F858C8E8A827C7976717781878786887F
:1037300086827D7E81837F7C7D817E76757F8C8D88
:103740008583858678707280928E8F8E938E7B6A49
:103750006470787D7D8A9797897A74777C6E6974B6
:10376000878D86807B84837A6E748183848386864A
:103770008B837B7D7D7C7A7C7D838D898585857F30
:103780007A72696B727F82909593948B7E6B686777
:103790006D757C868F968D80756F6C6769717D8481
:1037A0008B8D8C8680776E727A848587898B8D87E6
:1037B000818086847D79787D83837F7F888B8681F5
:1037C00080807D796F6B707B818D9694948C8070F6
:1037D0006D68656C78838A938F8B82776B6970755F
:1037E00080888E949995857A747271757882919497
:1037F0008D8987847E77737A838686878885817AA8
:103800007577797A7C828585827B767376787A84FF
:10381000888A8A837B747370717D888F908E877F8E
:10382000796F6A7179808890918E8B7F76747777C3
:103830007980868B8B88817E7B7776767A7E818491
:10384000838080828585817D7C7D7E7F7C7E828178
:103850007D7A7C7B7A7B7D80898C8A8783827D7868
:1038600074757B828385858584817A74797D808374
:10387000858686857E7A7B7A7C7E80828687858334
:10388000827F7E7F7E8081858483817D7B81848031
:1038900082868784807C7C7E7D7D818583807D7A25
:1038A000777675787E82848786807E79757072756A
:1038B0007B8385848586827F7B77787C7F80838607
:1038C0008786817C78797B7C7E8185898A878482E2
:1038D000807D7B7B7C7E808483838584827D7A78F7
:1038E0007778787B7D7F8184837E7D7C7A77757520
:1038F000787C7D7F83878986817E7A7775767A80EA
:103900008689888887837E7B7B7C8083858789887E
:1039100083807D7B7B7C7F838685838382817F80A0
:1039200081818382808183858483828283817E7D7D
:103930007C7D7D7D7C7D7E7D7E7E807F7E7E7D7EAE
:103940007C7D7E8081808285878381817F7E7B7B79
:103950007B7D828383848481807E7B7C8081818265
:10396000838383817E7E7E7F7F82858787837F7D41
:103970007C7C7B7B7E828382807E7C7A7978797C7A
:103980007E7F807F7E7C7A7878797B7E8081818261
:10399000807E7C7C7D7E7F7F8081817F7F7F7F8139
:1039A0008181818281818181818282807F7F7F7F0D
:0B39B0007F7F7F808283828282828181
:1039BC001C000020000000000024F40000000102A4
:0C39CC000304050607FFFFFFE9270000C9
:040000050800019559
:00000001FF
