:020000040800F2
:100000000000012061020008650200086702000884
:100010007D0200087F020008950200080000000031
:10002000000000000000000000000000AB0200081B
:10003000AD02000800000000AF020008010A00083D
:10004000C5020008C5020008C5020008C502000874
:10005000C5020008C50200081D1000083D10000878
:10006000C5020008C5020008C5020008C502000854
:10007000C5020008C5020008C5020008C502000844
:10008000C5020008C5020008C50200080000000003
:10009000000000000000000000000000C502000891
:1000A000C5020008C5020008C5020008C502000814
:1000B000C5020008C5020008C5020008C502000804
:1000C000C5020008C5020008C5020008C5020008F4
:1000D000C5020008C5020008C502000800000000B3
:1000E000C5020008C5020008C502000800000000A3
:1000F000000000000000000000000000C502000831
:1001000000000000C5020008C5020008C502000882
:1001100000000000000000000000000000000000DF
:10012000C5020008C5020008C5020008C502000893
:10013000C5020008000000000000000000000000F0
:10014000000000000000000000000000C5020008E0
:10015000C5020008C5020008C5020008C502000863
:10016000C5020008C50200080000000000000000F1
:10017000000000000000000000000000000000007F
:1001800000000000C50200080000000000000000A0
:10019000C502000807B500F0B3FB274B2748834290
:1001A00026D3274B274900208B422DD300F0F4FFA4
:1001B000254E264C01A9684600F09AFBA41BA4100A
:1001C0000025AC4229DC224E224CA41BA4100025A1
:1001D000AC4227DCDDE9000100F040FF1E4D1F4C62
:1001E000641B0646A410002C21DC304600F07CFB8A
:1001F000D3E900120C3353F8044C891A9442CED937
:10020000555815600432F9E753F8082B53F8044C9D
:100210009442C9D910600432FAE756F8253098475D
:100220000135CEE756F8253098470135D0E7013C37
:1002300055F824309847D6E7C8020008E0020008C5
:10024000E0020008F0020008F0020008F0020008D6
:10025000F0020008F0020008F0020008F0020008B6
:1002600014480047FEE71EF0040F0CBFEFF30880B0
:10027000EFF309807146104A1047FEE7FEE71EF0D3
:10028000040F0CBFEFF30880EFF3098071460B4AAF
:100290001047FEE71EF0040F0CBFEFF30880EFF3EA
:1002A00009807146064A1047FEE7FEE7FEE7FEE7D3
:1002B00070470000950100087B02000893020008C7
:0602C000A9020008FEE7A0
:1002C800CC110008000000200C000020CC11000810
:1002D80000000010000000100C0000205800002052
:0802E8000000001000000010EE
:1002F00010B5084B044618684FF47A73B0FBF3F05E
:1003000000F070F8002221464FF0FF3000F036F880
:10031000002010BD0800002008B50B4B1A6842F4FD
:1003200000721A601A6842F480621A601A6842F415
:1003300080721A60032000F00FF80F20FFF7D8FF3B
:1003400000F033FF002008BD003C0240014B18685C
:10035000704700BF54000020074AD36823F4E063CD
:100360001B041B0C43F0BF63000243F4003300F492
:10037000E0600343D360704700ED00E0174B70B5B9
:10038000DC68C4F30224C4F10705042D04F104035E
:1003900028BF04254FF0FF36062B06FA05F38CBF65
:1003A000033C002421EA0303A34006FA04F422EAF2
:1003B0000404002843EA0403A8BF00F160404FEAA8
:1003C0000313BCBF00F00F00054ADBB2AABF00F563
:1003D0006140135480F8003370BD00BF00ED00E0B1
:1003E00014ED00E00138B0F1807F0AD2064B074AD5
:1003F0005860F02182F823100020072298601A60CC
:1004000070470120704700BF10E000E000ED00E001
:10041000044B1A6804280CBF42F0040222F00402C4
:100420001A60704710E000E00368F7B50446D8078B
:1004300038D4236899076DD423681E0700F1B9806A
:1004400023685D0728D500230193A64BA64D1A6C9F
:1004500042F080521A641B6C03F080530193019B9D
:100460002B6843F480732B60FFF770FF06462B6800
:10047000DA0540F1C0809D4B227A1A70A368002BE8
:1004800000F0C780FFF762FF964D064641F28837BD
:100490002B6F9B0740F1B680A269002A40F0C9800B
:1004A000002015E08F4B9A6802F00C02042A07D056
:1004B0009A6802F00C02082A0CD15B685A0209D52E
:1004C000884B1B689B03B4D56368002BB1D1012016
:1004D00003B0F0BD864B22791A7063686BB1FFF7E9
:1004E00035FF804D06462B689F03A2D4FFF72EFFF1
:1004F000801B6428F7D90320EAE7FFF727FF794D2F
:1005000006462B68980394D5FFF720FF801B6428CC
:10051000F7D9F0E7734B9A6812F00C0F07D09A687E
:1005200002F00C02082A16D15B68590213D46D4BF5
:100530001A68920702D5E268012AC8D11868F82221
:1005400092FAA2F2B2FA82F122698A4020F0F8010E
:100550000A431A6070E7E268664BDAB101221A605A
:10056000FFF7F4FE5F4D06462B689B070CD5296804
:10057000F82393FAA3F3B3FA83F22369934021F0AB
:10058000F80213432B6057E7FFF7E0FE801B0228B9
:10059000EAD9B0E71A60FFF7D9FE524D06462B683C
:1005A0009F077FF549AFFFF7D1FE801B0228F6D9E0
:1005B000A1E76269504B7AB101221A60FFF7C6FECB
:1005C000484D06466B6F98073FF53AAFFFF7BEFE02
:1005D000801B0228F6D98EE71A60FFF7B7FE414D5F
:1005E00006466B6F99077FF52BAFFFF7AFFE801BB9
:1005F0000228F6D97FE7FFF7A9FE801B02287FF6C5
:1006000036AF78E7FFF7A2FE801BB8427FF640AF17
:1006100071E7FFF79BFE334D064641F288372B6F9B
:1006200098077FF539AFFFF791FE801BB842F6D9E6
:1006300061E72C4DAB6803F00C03082B3FF447AF88
:100640002E4E0023022A33603ED1FFF77FFE07467D
:100650002B68990132D447F6C07797FAA7F74FF481
:100660004032B7FA87F792FAA2F24FF07061B2FA0D
:1006700082F091FAA1F1D4E907321343626A02FAD7
:1006800007F7A26A5208013A82403B431343E26AE9
:10069000144CB1FA81F102FA01F10B436B600123B2
:1006A0003360FFF753FE054623689A013FF5F8AE25
:1006B000FFF74CFE401B0228F6D91CE7FFF746FE69
:1006C000C01B0228C4D916E7FFF740FE04462B687A
:1006D0009B017FF5E5AEFFF739FE001B0228F6D936
:1006E00009E700BF00380240007000407038024047
:1006F0000238024000004742800E474260004742F5
:10070000194A936803F00C03042B10B503D0082B8F
:1007100003D0164800E0164810BD5168536801F038
:100720003F0113F4800F47F6C074536894FAA4F0A5
:10073000B0FA80F003EA040323FA00F314BF0C4874
:100740000A48B0FBF1F05843074B4FF440325B6866
:1007500092FAA2F2B2FA82F203F44033D3400133A8
:100760005B00B0FBF3F0D7E7003802400024F40050
:1007700040787D01554B1A6802F00F028A422DE93C
:10078000F04105460E462FD32A68940736D4D00789
:100790003CD44E4B1A6802F00F02B24200F286803F
:1007A0002A68510700F18A80130707D5484A29694A
:1007B000936823F4604343EAC1039360FFF7A0FF0B
:1007C000434BF0229B6892FAA2F2B2FA82F203F053
:1007D000F003D3403F4AD35CD8403F4B18600F2012
:1007E000FFF786FD002007E0CAB21A701B6803F00D
:1007F0000F038B42C8D00120BDE8F0813449A868BE
:100800008B6823F0F00303438B60C0E76A68304BCA
:10081000012A1DD11B6813F4003FECD02C4CA368B7
:1008200023F003031343A360FFF790FD6B68012BD4
:10083000074641F2883815D1A36803F00C03042B56
:10084000A7D0FFF783FDC01B4045F5D90320D3E7B0
:10085000911E01291B6802D813F0007FDDE713F019
:10086000020FDAE7022B0AD1A36803F00C03082B6E
:100870008FD0FFF76BFDC01B4045F5D9E6E7032B92
:100880000FD1A36803F00C030C2B82D0FFF75EFDA1
:10089000C01B4045F5D9D9E7FFF758FDC01B4045BF
:1008A000D4D8A36813F00C0FF6D172E7F2B21A7025
:1008B0001B6803F00F03B3429DD171E70449E86858
:1008C0008B6823F4E05303438B606DE7003C0240E8
:1008D00000380240AC11000808000020014B1868E5
:1008E000704700BF0800002008B500F015F80000B0
:1008F00001230360014B0B60704700BF0000002024
:1009000008B500F01BF8024B024A9A6008BD00BF10
:1009100000ED00E000000008BFF34F8F0549064BD3
:10092000CA6802F4E0621343CB60BFF34F8F00BF8D
:10093000FDE700BF00ED00E00400FA050C4B1A686B
:10094000002142F001021A6099601A6822F0847254
:1009500022F480321A60074A5A601A6822F4802210
:100960001A60D960044B4FF000629A60704700BF74
:10097000003802401030002400ED00E0174A18490A
:10098000936803F00C03042B10B50DD0082B0DD089
:10099000144B0B60114B144A9B68C3F30313D25CD6
:1009A0000B68D3400B6010BD104BF2E754685068E1
:1009B00052686302C2F3881200F03F004CBF0B4B39
:1009C000084BB3FBF0F35343044A5268C2F30142AD
:1009D00001325200B3FBF2F3DBE700BF0038024004
:1009E000080000200024F400BC11000840787D01BC
:1009F000024A136823F001031360704710E000E01F
:100A000008B5064B1B6803B19847054B1B78012BB3
:100A100003D1BDE80840FFF7EBBF08BD1000002080
:100A20000D0000200378013B032B04D8DFE803F01E
:100A3000020E1012084A136823F40B6323F0080314
:100A400043F45C7343F0030313607047034AF2E717
:100A5000034AF0E7034AEEE7003001400038004067
:100A6000003C0040003401400278013A032A04D8D7
:100A7000DFE802F00207090B084B9A68900706D4DA
:100A8000FEE7074BF9E7074BF7E7074BF5E7D960B8
:100A9000D30700D4FEE70846704700BF003001408E
:100AA00000380040003C0040003401400A4B1A6806
:100AB00022F480221A601A6842F480321A601A689E
:100AC0009203FCD59A6822F002029A609A6842F07A
:100AD00001029A60704700BF00380240032800F20C
:100AE000B880DFE800F0024B53A3162900F2B18072
:100AF000DFE801F00C12171C21262B30AFAFAFAF8F
:100B000035AFAFAFAFAFAFAFAF3A3F006A4A136B8D
:100B100043F0010313637047674A136B43F002030A
:100B2000F8E7654A136B43F00403F3E7624A136B7B
:100B300043F00803EEE7604A136B43F01003E9E764
:100B40005D4A136B43F02003E4E75B4A136B43F009
:100B50004003DFE7584A136B43F08003DAE7564A55
:100B6000136B43F48053D5E7534A136B43F40013DC
:100B7000D0E7514A136B43F48003CBE7072968D1D0
:100B80004D4A536B43F08003536370471C2960D870
:100B9000DFE801F00F151A1F5F5F5F5F5F5F5F2483
:100BA0005F5F292E5F335F5F5F383D425F5F5F5F4E
:100BB0004700414A136C43F00103136470473E4AF7
:100BC000136C43F00203F8E73B4A136C43F0040351
:100BD000F3E7394A136C43F00803EEE7364A136C27
:100BE00043F40063E9E7344A136C43F48043E4E7D9
:100BF000314A136C43F40043DFE72F4A136C43F48C
:100C00000033DAE72C4A136C43F40013D5E72A4A81
:100C1000136C43F48003D0E7274A136C43F40003BA
:100C2000CBE7254A136C43F08053C6E7122910D84E
:100C3000DFE801F00A0F0F0F10150F0F1A0F0F1F2B
:100C400024292E0F33383D001B4A536C43F0010317
:100C500053647047184A536C43F01003F8E7164A80
:100C6000536C43F02003F3E7134A536C43F480734F
:100C7000EEE7114A536C43F40063E9E70E4A536C04
:100C800043F48053E4E70C4A536C43F40053DFE72A
:100C9000094A536C43F48043DAE7074A536C43F440
:100CA0008033D5E7044A536C43F40033D0E7024A5B
:100CB000536C43F48023CBE70038024010B580B971
:100CC000A1F10D03022B0BD9164B4900032000FAAA
:100CD00001F4186802FA01F120EA040001431960E6
:100CE00010BD012804D1CB1E012BF9D90E4BECE726
:100CF00002380528F4D801A353F820F0150D000898
:100D0000210D0008190D0008E10C0008E10C000895
:100D10001D0D0008054BD8E7054BD6E7054BD4E77A
:100D2000054BD2E7000002400004024000080240E8
:100D300000100240001C0240000C024068B9A1F102
:100D40000D03022B26D9144BF2B9012000FA01F24F
:100D5000586820EA020058607047012804D1CB1E71
:100D6000012B17D90D4BEFE70238052812D8DFE821
:100D700000F0030905111107094BE5E7094BE3E70B
:100D8000094BE1E7094BDFE7012A01BF8A405968B7
:100D90000A435A60704700BF00000240000402404E
:100DA0000008024000100240001C0240000C0240FB
:100DB00010B580B9A1F10D03022B0BD9164B4900D8
:100DC000032000FA01F4986802FA01F120EA040015
:100DD0000143996010BD012804D1CB1E012BF9D924
:100DE0000E4BECE702380528F4D801A353F820F0A5
:100DF000090E0008150E00080D0E0008D50D00089C
:100E0000D50D0008110E0008054BD8E7054BD6E7B5
:100E1000054BD4E7054BD2E7000002400004024036
:100E20000008024000100240001C0240000C02407A
:100E300010B580B9A1F10D03022B0BD9164B490057
:100E4000032000FA01F4D86802FA01F120EA040054
:100E50000143D96010BD012804D1CB1E012BF9D963
:100E60000E4BECE702380528F4D801A353F820F024
:100E7000890E0008950E00088D0E0008550E00081A
:100E8000550E0008910E0008054BD8E7054BD6E734
:100E9000054BD4E7054BD2E70000024000040240B6
:100EA0000008024000100240001C0240000C0240FA
:100EB00010B570B9A1F10D03022B09D9154B586972
:100EC000012404FA01F1A2420CBF0843884358618F
:100ED00010BD012804D1CB1E012BF9D90E4BEEE732
:100EE00002380528F4D801A353F820F0050F0008B4
:100EF000110F0008090F0008D10E0008D10E0008DC
:100F00000D0F0008054BDAE7054BD8E7054BD6E790
:100F1000054BD4E7000002400004024000080240F4
:100F200000100240001C0240000C024010B5A0B9A5
:100F3000A1F10D03022B0FD9214B07292ED88900CF
:100F40000F2000FA01F4186A02F00F0220EA0400F0
:100F500002FA01F10143196210BD012804D1CB1E30
:100F6000012BF9D9174BE8E702380528F4D801A37B
:100F700053F820F08D0F0008990F0008910F00081A
:100F8000590F0008590F0008950F00080E4BD4E7C1
:100F90000E4BD2E70E4BD0E70E4BCEE70839C8B266
:100FA0000728D9D889000F2000FA01F4586A02F006
:100FB0000F0220EA040002FA01F101435962CBE773
:100FC00000000240000402400008024000100240FD
:100FD000001C0240000C024010B5044682784178A3
:100FE0000078FFF76BFEE27861782078FFF7A6FEC5
:100FF000227961782078FFF7DBFE627961782078CA
:10100000FFF716FFA378022B06D1A279617820782A
:10101000BDE81040FFF78ABF10BD000008B5054BC2
:101020001B6803B19847044A536943F001035361B5
:1010300008BD00BF14000020003C014008B5054B6E
:101040005B6803B19847044A536943F00203536154
:1010500008BD00BF14000020003C014030B58BB03B
:10106000FFF724FD00210846FFF738FD0C2103207F
:10107000FFF734FD002406230522072102940125F1
:101080008DF80930684602238DF80A30ADF80E203D
:10109000ADF81620ADF81E20CDE9084404948DF873
:1010A00025308DF811108DF812300694ADF80C40F3
:1010B0008DF819208DF81A30ADF81440ADF81C40A9
:1010C0008DF821508DF822500094ADF80440FFF7C0
:1010D000A9FC02A8FFF780FF04A8FFF77DFF06A880
:1010E000FFF77AFF08A8FFF777FF6E216846FFF742
:1010F000BBFC6E2804D12A4629462046FFF7D8FEBD
:10110000FEE7000070B594B00024214B01941A6CE6
:1011100042F080521A641B6C03F080530193019BD0
:101120001C4B02941A6842F440421A601B6803F494
:1011300040430293029B01234FF48002CDE9083320
:101140001923CDE90F2304264FF4A8730225CDE916
:10115000113608A8072313930E95FFF765F90F239F
:101160002946CDE9033503A84FF48053CDE9063471
:101170000594FFF7FFFAFFF7B1FB4FF47A73B0FB6A
:10118000F3F0FFF72FF93046FFF742F914B070BDC6
:10119000003802400070004008B5FFF7BDF8FFF7C7
:1011A000B1FFBDE80840FFF7E9BB70470000000051
:1011B00001020304010203040607080900000000FD
:0C11C000000000000102030406070809FB
:0C11CC000C000020000000000024F400D3
:040000050800019559
:00000001FF
