:020000040800F2
:100000000000012061020008650200086702000884
:100010007D0200087F020008950200080000000031
:10002000000000000000000000000000AB0200081B
:10003000AD02000800000000AF020008B102000895
:10004000C5020008C5020008C5020008C502000874
:10005000C5020008C5020008C5020008C502000864
:10006000C5020008C5020008C5020008C502000854
:10007000C5020008C5020008C5020008C502000844
:10008000C5020008C5020008C50200080000000003
:10009000000000000000000000000000C502000891
:1000A000C5020008C5020008C5020008C502000814
:1000B000C5020008C5020008C5020008C502000804
:1000C000C5020008C5020008C5020008C5020008F4
:1000D000C5020008C5020008C502000800000000B3
:1000E000C5020008C5020008C502000800000000A3
:1000F000000000000000000000000000C502000831
:1001000000000000C5020008C5020008C502000882
:1001100000000000000000000000000000000000DF
:10012000C5020008C5020008C5020008C502000893
:10013000C5020008000000000000000000000000F0
:10014000000000000000000000000000C5020008E0
:10015000C5020008C5020008C5020008C502000863
:10016000C5020008C50200080000000000000000F1
:10017000000000000000000000000000000000007F
:1001800000000000C50200080000000000000000A0
:10019000C502000807B500F0A7FB274B274883429C
:1001A00026D3274B274900208B422DD300F0CEFFCA
:1001B000254E264C01A9684600F08EFBA41BA41016
:1001C0000025AC4229DC224E224CA41BA4100025A1
:1001D000AC4227DCDDE9000100F0FEFE1E4D1F4CA5
:1001E000641B0646A410002C21DC304600F070FB96
:1001F000D3E900120C3353F8044C891A9442CED937
:10020000555815600432F9E753F8082B53F8044C9D
:100210009442C9D910600432FAE756F8253098475D
:100220000135CEE756F8253098470135D0E7013C37
:1002300055F824309847D6E7C8020008E0020008C5
:10024000E0020008F0020008F0020008F0020008D6
:10025000F0020008F0020008F0020008F0020008B6
:1002600014480047FEE71EF0040F0CBFEFF30880B0
:10027000EFF309807146104A1047FEE7FEE71EF0D3
:10028000040F0CBFEFF30880EFF3098071460B4AAF
:100290001047FEE71EF0040F0CBFEFF30880EFF3EA
:1002A00009807146064A1047FEE7FEE7FEE7FEE7D3
:1002B00070470000950100087B02000893020008C7
:0602C000A9020008FEE7A0
:1002C800A4110008000000200C000020A411000860
:1002D80000000010000000100C0000201400002096
:0802E8000000001000000010EE
:1002F00010B5084B044618684FF47A73B0FBF3F05E
:1003000000F070F8002221464FF0FF3000F036F880
:10031000002010BD0800002008B50B4B1A6842F4FD
:1003200000721A601A6842F480621A601A6842F415
:1003300080721A60032000F00FF80F20FFF7D8FF3B
:1003400000F00DFF002008BD003C0240014B186882
:10035000704700BF10000020074AD36823F4E06311
:100360001B041B0C43F0BF63000243F4003300F492
:10037000E0600343D360704700ED00E0174B70B5B9
:10038000DC68C4F30224C4F10705042D04F104035E
:1003900028BF04254FF0FF36062B06FA05F38CBF65
:1003A000033C002421EA0303A34006FA04F422EAF2
:1003B0000404002843EA0403A8BF00F160404FEAA8
:1003C0000313BCBF00F00F00054ADBB2AABF00F563
:1003D0006140135480F8003370BD00BF00ED00E0B1
:1003E00014ED00E00138B0F1807F0AD2064B074AD5
:1003F0005860F02182F823100020072298601A60CC
:1004000070470120704700BF10E000E000ED00E001
:10041000044B1A6804280CBF42F0040222F00402C4
:100420001A60704710E000E00368F7B50446D8078B
:1004300038D4236899076DD423681E0700F1B9806A
:1004400023685D0728D500230193A64BA64D1A6C9F
:1004500042F080521A641B6C03F080530193019B9D
:100460002B6843F480732B60FFF770FF06462B6800
:10047000DA0540F1C0809D4B227A1A70A368002BE8
:1004800000F0C780FFF762FF964D064641F28837BD
:100490002B6F9B0740F1B680A269002A40F0C9800B
:1004A000002015E08F4B9A6802F00C02042A07D056
:1004B0009A6802F00C02082A0CD15B685A0209D52E
:1004C000884B1B689B03B4D56368002BB1D1012016
:1004D00003B0F0BD864B22791A7063686BB1FFF7E9
:1004E00035FF804D06462B689F03A2D4FFF72EFFF1
:1004F000801B6428F7D90320EAE7FFF727FF794D2F
:1005000006462B68980394D5FFF720FF801B6428CC
:10051000F7D9F0E7734B9A6812F00C0F07D09A687E
:1005200002F00C02082A16D15B68590213D46D4BF5
:100530001A68920702D5E268012AC8D11868F82221
:1005400092FAA2F2B2FA82F122698A4020F0F8010E
:100550000A431A6070E7E268664BDAB101221A605A
:10056000FFF7F4FE5F4D06462B689B070CD5296804
:10057000F82393FAA3F3B3FA83F22369934021F0AB
:10058000F80213432B6057E7FFF7E0FE801B0228B9
:10059000EAD9B0E71A60FFF7D9FE524D06462B683C
:1005A0009F077FF549AFFFF7D1FE801B0228F6D9E0
:1005B000A1E76269504B7AB101221A60FFF7C6FECB
:1005C000484D06466B6F98073FF53AAFFFF7BEFE02
:1005D000801B0228F6D98EE71A60FFF7B7FE414D5F
:1005E00006466B6F99077FF52BAFFFF7AFFE801BB9
:1005F0000228F6D97FE7FFF7A9FE801B02287FF6C5
:1006000036AF78E7FFF7A2FE801BB8427FF640AF17
:1006100071E7FFF79BFE334D064641F288372B6F9B
:1006200098077FF539AFFFF791FE801BB842F6D9E6
:1006300061E72C4DAB6803F00C03082B3FF447AF88
:100640002E4E0023022A33603ED1FFF77FFE07467D
:100650002B68990132D447F6C07797FAA7F74FF481
:100660004032B7FA87F792FAA2F24FF07061B2FA0D
:1006700082F091FAA1F1D4E907321343626A02FAD7
:1006800007F7A26A5208013A82403B431343E26AE9
:10069000144CB1FA81F102FA01F10B436B600123B2
:1006A0003360FFF753FE054623689A013FF5F8AE25
:1006B000FFF74CFE401B0228F6D91CE7FFF746FE69
:1006C000C01B0228C4D916E7FFF740FE04462B687A
:1006D0009B017FF5E5AEFFF739FE001B0228F6D936
:1006E00009E700BF00380240007000407038024047
:1006F0000238024000004742800E474260004742F5
:1007000014498B6803F00C03082B10B520D14868FE
:100710004B684A68104B00F03F0047F6C07494FAEB
:10072000A4F1B1FA81F12240B3FBF0F0094BCA40C9
:1007300050435B684FF4403292FAA2F2B2FA82F26E
:1007400003F44033D34001335B00B0FBF3F010BD42
:100750000148FCE7003802400024F400554B1A68B9
:1007600002F00F028A422DE9F04105460E462FD3D2
:100770002A68940736D4D0073CD44E4B1A6802F04E
:100780000F02B24200F286802A68510700F18A8087
:10079000130707D5484A2969936823F4604343EA5D
:1007A000C1039360FFF7ACFF434BF0229B6892FAC2
:1007B000A2F2B2FA82F203F0F003D3403F4AD35CD4
:1007C000D8403F4B18600F20FFF792FD002007E054
:1007D000CAB21A701B6803F00F038B42C8D0012005
:1007E000BDE8F0813449A8688B6823F0F003034327
:1007F0008B60C0E76A68304B012A1DD11B6813F477
:10080000003FECD02C4CA36823F003031343A360F8
:10081000FFF79CFD6B68012B074641F2883815D124
:10082000A36803F00C03042BA7D0FFF78FFDC01BB8
:100830004045F5D90320D3E7911E01291B6802D852
:1008400013F0007FDDE713F0020FDAE7022B0AD185
:10085000A36803F00C03082B8FD0FFF777FDC01BB4
:100860004045F5D9E6E7032B0FD1A36803F00C034D
:100870000C2B82D0FFF76AFDC01B4045F5D9D9E7A4
:10088000FFF764FDC01B4045D4D8A36813F00C0FDC
:10089000F6D172E7F2B21A701B6803F00F03B3428D
:1008A0009DD171E70449E8688B6823F4E053034362
:1008B0008B606DE7003C0240003802406011000888
:1008C00008000020014B1868704700BF0800002096
:1008D00008B500F015F8000001230360014B0B6020
:1008E000704700BF0000002008B500F01BF8024B65
:1008F000024A9A6008BD00BF00ED00E00000000859
:10090000BFF34F8F0549064BCA6802F4E0621343F8
:10091000CB60BFF34F8F00BFFDE700BF00ED00E0ED
:100920000400FA050C4B1A68002142F001021A601B
:1009300099601A6822F0847222F480321A60074AA1
:100940005A601A6822F480221A60D960044B4FF072
:1009500000629A60704700BF0038024010300024E7
:1009600000ED00E0134A1449936803F00C03082BD0
:1009700010B5124B0AD00B600E4B114A9B68C3F3A3
:100980000313D25C0B68D3400B6010BD54685068F1
:100990005268C2F3881200F03F00B3FBF0F35343F8
:1009A000044A5268C2F3014201325200B3FBF2F32F
:1009B000E1E700BF00380240080000200024F400F6
:1009C000701100080A4B1A6822F480221A601A6813
:1009D00042F480321A601A689203FCD59A6822F0B9
:1009E00002029A609A6842F001029A60704700BF62
:1009F00000380240032800F2B880DFE800F0024B24
:100A000053A3162900F2B180DFE801F00C12171C85
:100A100021262B30AFAFAFAF35AFAFAFAFAFAFAF7A
:100A2000AF3A3F006A4A136B43F001031363704708
:100A3000674A136B43F00203F8E7654A136B43F010
:100A40000403F3E7624A136B43F00803EEE7604ADE
:100A5000136B43F01003E9E75D4A136B43F0200387
:100A6000E4E75B4A136B43F04003DFE7584A136B3C
:100A700043F08003DAE7564A136B43F48053D5E71B
:100A8000534A136B43F40013D0E7514A136B43F4FA
:100A90008003CBE7072968D14D4A536B43F08003AD
:100AA000536370471C2960D8DFE801F00F151A1F47
:100AB0005F5F5F5F5F5F5F245F5F292E5F335F5F14
:100AC0005F383D425F5F5F5F4700414A136C43F010
:100AD0000103136470473E4A136C43F00203F8E7C6
:100AE0003B4A136C43F00403F3E7394A136C43F0B9
:100AF0000803EEE7364A136C43F40063E9E7344A2F
:100B0000136C43F48043E4E7314A136C43F400432D
:100B1000DFE72F4A136C43F40033DAE72C4A136CF7
:100B200043F40013D5E72A4A136C43F48003D0E75B
:100B3000274A136C43F40003CBE7254A136C43F0B8
:100B40008053C6E7122910D8DFE801F00A0F0F0F13
:100B500010150F0F1A0F0F1F24292E0F33383D00C9
:100B60001B4A536C43F0010353647047184A536C9B
:100B700043F01003F8E7164A536C43F02003F3E701
:100B8000134A536C43F48073EEE7114A536C43F4F9
:100B90000063E9E70E4A536C43F48053E4E70C4AE0
:100BA000536C43F40053DFE7094A536C43F480432A
:100BB000DAE7074A536C43F48033D5E7044A536CB1
:100BC00043F40033D0E7024A536C43F48023CBE76D
:100BD0000038024010B580B9A1F10D03022B0BD9EA
:100BE000164B4900032000FA01F4186802FA01F1DB
:100BF00020EA04000143196010BD012804D1CB1E76
:100C0000012BF9D90E4BECE702380528F4D801A3E3
:100C100053F820F02D0C0008390C0008310C0008A6
:100C2000F90B0008F90B0008350C0008054BD8E754
:100C3000054BD6E7054BD4E7054BD2E70000024051
:100C4000000402400008024000100240001C024064
:100C5000000C024068B9A1F10D03022B26D9144BF8
:100C6000F2B9012000FA01F2586820EA0200586047
:100C70007047012804D1CB1E012B17D90D4BEFE78C
:100C80000238052812D8DFE800F003090511110722
:100C9000094BE5E7094BE3E7094BE1E7094BDFE7E0
:100CA000012A01BF8A4059680A435A60704700BF51
:100CB0000000024000040240000802400010024010
:100CC000001C0240000C024010B580B9A1F10D03D8
:100CD000022B0BD9164B4900032000FA01F4986847
:100CE00002FA01F120EA04000143996010BD0128D5
:100CF00004D1CB1E012BF9D90E4BECE702380528A5
:100D0000F4D801A353F820F0210D00082D0D0008A0
:100D1000250D0008ED0C0008ED0C0008290D000859
:100D2000054BD8E7054BD6E7054BD4E7054BD2E793
:100D3000000002400004024000080240001002408F
:100D4000001C0240000C024010B580B9A1F10D0357
:100D5000022B0BD9164B4900032000FA01F4D86886
:100D600002FA01F120EA04000143D96010BD012814
:100D700004D1CB1E012BF9D90E4BECE70238052824
:100D8000F4D801A353F820F0A10D0008AD0D000820
:100D9000A50D00086D0D00086D0D0008A90D0008D7
:100DA000054BD8E7054BD6E7054BD4E7054BD2E713
:100DB000000002400004024000080240001002400F
:100DC000001C0240000C024010B570B9A1F10D03E7
:100DD000022B09D9154B5869012404FA01F1A242EA
:100DE0000CBF08438843586110BD012804D1CB1EB5
:100DF000012BF9D90E4BEEE702380528F4D801A3F0
:100E000053F820F01D0E0008290E0008210E0008DE
:100E1000E90D0008E90D0008250E0008054BDAE78A
:100E2000054BD8E7054BD6E7054BD4E70000024059
:100E3000000402400008024000100240001C024072
:100E4000000C024048B9A1F10D03022B1DD90F4B34
:100E50001869C84000F001007047012804D1CB1E7A
:100E6000012B11D90A4BF3E7023805280CD8DFE82B
:100E700000F00309050B0B07064BE9E7064BE7E714
:100E8000064BE5E7064BE3E7002070470000024011
:100E9000000402400008024000100240001C024012
:100EA000000C024010B5A0B9A1F10D03022B0FD91F
:100EB0001E4B072902F00F024FF00F002AD88900BD
:100EC0001C6A884024EA000002FA01F10143196219
:100ED00010BD012804D1CB1E012BF9D9144BE8E732
:100EE00002380528F4D801A353F820F0050F0008B4
:100EF000110F0008090F0008D10E0008D10E0008DC
:100F00000D0F00080B4BD4E70B4BD2E70B4BD0E790
:100F10000B4BCEE7083989005C6A884024EA000060
:100F200002FA01F101435962D2E700BF000002401A
:100F3000000402400008024000100240001C024071
:100F4000000C024010B50446827841780078FFF723
:100F500041FEE27861782078FFF77CFE22796178A3
:100F60002078FFF7B1FE627961782078FFF7ECFE18
:100F7000A378022B06D1E28861782078BDE8104082
:100F8000FFF790BF10BD82B04FF47A6358430190D1
:100F9000019B5A1E01920BB902B0704700BFF7E7E0
:100FA00007B503788DF80030437882788DF80130EA
:100FB00068460023ADF802308DF804308DF8052026
:100FC000ADF80630FFF7BEFF03B05DF804FB4178D3
:100FD0000078FFF737BF0000F0B58BB0FFF7F2FCE9
:100FE00000210846FFF706FD324B04AA03F118075B
:100FF00015463E4618685968144603C40833BB4278
:101000002246F7D12846FFF79DFF06A8FFF79AFF73
:1010100008A8FFF797FF71683068327A01AB03C305
:1010200001A81A70FFF7BCFF0DF10700FFF7B8FF2A
:101030000DF10A00FFF7B4FF0023ADF800308DF882
:10104000023001A8FFF7C3FF012818D19DF8003036
:1010500083F001038DF80030C820FFF794FF0024CF
:101060001DF8042005EBC403003218BF0122597893
:1010700000200134FFF7A8FE032CF1D1E1E70DF1C8
:101080000700FFF7A4FF012806D19DF8013083F087
:1010900001038DF80130DFE70DF10A00FFF797FF3C
:1010A0000128DCD19DF8023083F001038DF8023075
:1010B000D2E700BF8011000870B594B00024214B26
:1010C00001941A6C42F080521A641B6C03F0805336
:1010D0000193019B1C4B02941A6842F440421A602F
:1010E0001B6803F440430293029B01234FF48002E8
:1010F000CDE908331023CDE90F2304264FF4A8735C
:101100000225CDE9113608A8072313930E95FFF7A2
:101110008BF90F232946CDE9033503A84FF48053FB
:10112000CDE906340594FFF719FBFFF7CBFB4FF42D
:101130007A73B0FBF3F0FFF755F93046FFF768F923
:1011400014B070BD003802400070004008B5FFF7D1
:10115000E3F8FFF7B1FFBDE80840FFF703BC7047B5
:10116000000000000102030401020304060708094D
:101170000000000000000000010203040607080947
:10118000000001000000000000010100000000005C
:10119000000201000000000000030200040200053C
:0111A000024C
:0C11A4000C000020000000000024F400FB
:040000050800019559
:00000001FF
